:0400000007EF00F016
:100008007B82FCED1EF0A7EF24F0C10E0001D66F35
:10001800000E0001D76F75EF05F0250E0001EB19F2
:10002800D8B406D00001EB511DEC25F075EF05F0B2
:10003800000E0001D96F000ED86F000E0001DB6FB3
:10004800000EDA6FBFC0F6FFC0C0F7FF0800F5501A
:100058007EEC24F0D8A047D0000E0001D96F000E26
:10006800D86FD8C08EF0D9C08FF0000E0001916F04
:100078000A0E906F04EC24F08EC0D8F08FC0D9F02F
:10008800D00E0001CC6FFF0E0001CD6FBFC0F6FF90
:10009800C0C0F7FF0800F5500001CE6FCF6B00011C
:1000A800CC510001CE270001CD510001CF23000122
:1000B800CE510001D8270001CF510001D9230001FA
:1000C800BF4BC02BBFC0F6FFC0C0F7FF0800F550FC
:1000D8007EEC24F0D8A007D0C4D70001DB8520D05F
:1000E8000001DA8F1DD0BFC0F6FFC0C0F7FF0001C6
:1000F800BF4BC02B0800F5CFEBF00001EB51000A15
:10010800D8B41200640AD8B40BD0020AD8B4E5D720
:100118000F0AD8B405D0110AD8B4E2D775EF05F0A4
:10012800070E0001DB15D8B44ED3000E0001DD6FB9
:10013800060EDC6FD6C0D9FFD7C0DAFFDECFE8F0F5
:10014800DECFE9F0DDCFEAF0030E0001D627000E7E
:10015800D7230001EAAF11D0E8C080F0E9C081F0F0
:10016800EAC082F039EC24F080C0E8F081C0E9F000
:1001780082C0EAF0030E0001DA13000E0001E36FFB
:10018800000EE26F0001E8510001E9110001EA11D7
:10019800D8B49BD0820E0001CC6FFF0E0001CD6F4A
:1001A800E8C0CEF0E9C0CFF0EAC0D0F0EBC0D1F0A3
:1001B800100E06D00001D890D133D033CF33CE33D0
:1001C800E82EF8D70001CE510001CC250001E26FDE
:1001D800000E0001CD210001E36F0001E207D8A065
:1001E800E307E2C08EF0E3C08FF0000E0001916FCC
:1001F800030E906F04EC24F08EC0E2F08FC0E3F0A1
:10020800E2C086F0E3C087F0000E0001896F0A0E95
:10021800886F3FEC1EF086C0E2F087C0E3F0000173
:10022800E3AF04D00001E207D8A0E3070001E251E0
:100238000008BDEC0CF0A3C0DEF0A4C0DFF0A5C040
:10024800E0F0DEC094F0DFC095F0E0C096F0E8C0C2
:1002580097F0E9C098F0EAC099F043EC18F094C020
:10026800DEF095C0DFF096C0E0F0DEC080F0DFC0C1
:1002780081F0E0C082F0000E0001836F800E000163
:10028800846F3F0E0001856F79EC1DF00001D8B036
:1002980005D00001E207D8A0E30717D0DEC080F040
:1002A800DFC081F0E0C082F0000E0001836F200EF5
:1002B8000001846F410E0001856F79EC1DF000018B
:1002C800D8A003D00001E24BE32B0001DDBF08D02A
:1002D8000001DD511DE10D0E0001DC5DD8B018D024
:1002E800E8C0ADF0E9C0AEF0EAC0AFF00001DC5103
:1002F8000CEC11F0A3C0B0F0A4C0B1F0A5C0B2F0EE
:1003080062EC12F0ADC0E8F0AEC0E9F0AFC0EAF0C0
:100318000001E3BF08D00001E3512AE10A0E000101
:10032800E25DD8B025D00001E8510001E9110001D3
:10033800EA11D8B463D0E8C0AAF0E9C0ABF0EAC0CB
:10034800ACF098EC19F00001AA510001AB110001C2
:10035800AC110001AD11D8A451D00001E3BF4ED0BB
:100368000001E35105E1020E0001E25DD8A046D08C
:10037800DEC080F0DFC081F0E0C082F0700E0001C6
:10038800836F890E0001846F400E0001856F79EC40
:100398001DF00001D8B003D00001F70E02D0000113
:1003A800F80EE227FF0EE3230001E251BDEC0CF04A
:1003B800A3C0DEF0A4C0DFF0A5C0E0F0E8C080F084
:1003C800E9C081F0EAC082F0DEC083F0DFC084F0CB
:1003D800E0C085F0B0EC16F080C0E4F081C0E5F034
:1003E80082C0E6F083C0E7F0000E0001E86F000E5F
:1003F8000001E96F000E0001EA6F33D0E8C0AAF0EF
:10040800E9C0ABF0EAC0ACF098EC19F0AAC0E4F08F
:10041800ABC0E5F0ACC0E6F0ADC0E7F0E8C0B9F0BD
:10042800E9C0BAF0EAC0BBF0E4C088F0E5C089F0E2
:10043800E6C08AF0E7C08BF0BDEC21F088C0BCF0C4
:1004480089C0BDF08AC0BEF079EC23F0B9C0E8F0ED
:10045800BAC0E9F0BBC0EAF0000E0001E36F000E7D
:10046800E26F010E0001EB6F0A0E0001EB19D8B420
:100478001ED00001EB51040D8D0EF324F66EFE0E16
:10048800F420F76E0900F5500001E45D0900F5500D
:100498000001E5590900F5500001E6590900F55039
:1004A8000001E759D8A003D00001EB2BDDD7EBC042
:1004B800CCF00001CD6BCCBFCD070001DC510001B1
:1004C800CC270001DD510001CD230001E2510001DC
:1004D800CC270001E3510001CD230001CC510001DC
:1004E800D85F0001CD510001D95B0001DC5100014A
:1004F800DD11D8B404D00001D807D8A0D907030E5D
:100508000001DA150001CC6F000E0001DB150001B7
:10051800CD6F0001CC510001CD11D8B408D003D063
:10052800200E1DEC25F00001D807D8A0D90700013E
:10053800D9BF07D00001D951F3E10001D805D8B0DF
:10054800EFD7030E0001DA150001CC6F000E000191
:10055800DB150001CD6F0001CC510001CD11D8B4DD
:100568004BD02D0E1DEC25F047D0E4C080F0E5C03F
:1005780081F0E6C082F0E7C083F00001EB51040D82
:100588008D0EF324F66EFE0EF420F76E0900F5CFFB
:1005980084F00900F5CF85F00900F5CF86F00A0050
:1005A800F5CF87F09EEC1EF080C0DEF081C0DFF052
:1005B80082C0E0F083C0E1F0DEC08DF0DFC08EF0D5
:1005C800E0C08FF0E1C090F00A0E0001916F000EBC
:1005D800926F000E936F000E946FA5EC20F08DC003
:1005E800DEF08EC0DFF08FC0E0F090C0E1F00001D7
:1005F800DE51300F1DEC25F00001EB070001EB295F
:10060800D8B408D0B2D7300E1DEC25F00001E207AF
:10061800D8A0E3070001E3BF07D00001E351F3E1ED
:100628000001E205D8B0EFD70001DDBF0CD0000112
:10063800DD5105E1090E0001DC5DD8A004D0080EEB
:100648000001EB6F02D0DCC0EBF00001EB510001C0
:10065800DC5F000E0001EBBFFF0E0001DD5B000157
:10066800EB510001D8B403D02E0E1DEC25F000018B
:10067800EB51BDEC0CF0A3C0D2F0A4C0D3F0A5C0E0
:10068800D4F0E8C097F0E9C098F0EAC099F0D2C079
:1006980094F0D3C095F0D4C096F043EC18F094C011
:1006A800AAF095C0ABF096C0ACF098EC19F0AAC0CF
:1006B800E4F0ABC0E5F0ACC0E6F0ADC0E7F06ED05A
:1006C800E4C080F0E5C081F0E6C082F0E7C083F0C6
:1006D8000001EB51040D8D0EF324F66EFE0EF4208E
:1006E800F76E0900F5CF84F00900F5CF85F0090011
:1006F800F5CF86F00A00F5CF87F09EEC1EF080C09B
:10070800DEF081C0DFF082C0E0F083C0E1F0DEC03F
:100718008DF0DFC08EF0E0C08FF0E1C090F00A0EDF
:100728000001916F000E926F000E936F000E946F90
:10073800A5EC20F08DC0DEF08EC0DFF08FC0E0F0B9
:1007480090C0E1F00001DE51300F1DEC25F0E4C04F
:100758008DF0E5C08EF0E6C08FF0E7C090F00001A4
:10076800EB51040D8D0EF324F66EFE0EF420F76E99
:100778000900F5CF91F00900F5CF92F00900F5CF07
:1007880093F00A00F5CF94F0A5EC20F08DC0E4F0CA
:100798008EC0E5F08FC0E6F090C0E7F00001EB07EF
:1007A8000001EB29D8B408D08BD7300E1DEC25F00A
:1007B8000001DC07D8A0DD070001DC510001DD11D4
:1007C800D8B48FD1F2D70001DABF23D0D6C0D9FF71
:1007D800D7C0DAFFDECFE4F0DDCFE5F00001000E90
:1007E800E5BFFF0EE66FE76F020E0001D627000E89
:1007F800D7230001E7AF6ED0030E0001DA13000122
:10080800E71FE61FE51FE46D000EE523E623E72357
:1008180061D0D6C0D9FFD7C0DAFFDECFCCF0DDCFAC
:10082800CDF0CCC0E4F0CDC0E5F00001E66BE76B9D
:10083800020E0001D627000ED7234CD0010E00016E
:10084800EB6F0A0E0001EB19D8B44DD00001EB5143
:10085800040D8D0EF324F66EFE0EF420F76E0900DB
:10086800F5500001E45D0900F5500001E559090063
:10087800F5500001E6590900F5500001E759D8A0E4
:1008880032D00001EB2BDDD7010E0001EB6F080E13
:100898000001EB19D8B427D00001EB51040D030E69
:1008A800F324F66EFF0EF420F76E0900F5500001F0
:1008B800E45D0900F5500001E5590900F550000113
:1008C800E6590900F5500001E759D8A00CD00001FD
:1008D800EB2BDDD70001DA51800B000AD8B4AED774
:1008E800800AD8B4D1D70001D8510001D911D8B4A1
:1008F80014D0030E0001DA150001CC6F000E0001C0
:10090800DB150001CD6F0001CC510001CD11D8B429
:1009180004D00001D807D8A0D907800E0001EBBF8A
:100928007F0E0001CC6F0001D8510001EB5D000182
:10093800D951800A0001CC59D8B00BD00001EB5135
:100948000001D85F000E0001EBBFFF0E0001D95B6C
:1009580005D0000E0001D96F000ED86F0001D851E4
:100968000001D911D8B40DD0200E1DEC25F00001DE
:10097800D807D8A0D9070001D8510001D911D8A4A7
:10098800F3D7030E0001DA150001CC6F000E000149
:10099800DB150001CD6F0001CC510001CD11D8B499
:1009A80003D02D0E1DEC25F00001EB510001DC6F8A
:1009B800DD6BDCBFDD078AD0DCC0CCF0DDC0CDF05C
:1009C8000001D890CC37CD370001D890CC37CD373F
:1009D8008D0E0001CC25F66EFE0ECD21F76E0900B6
:1009E800F5CF84F00900F5CF85F00900F5CF86F042
:1009F8000A00F5CF87F0E4C080F0E5C081F0E6C0DA
:100A080082F0E7C083F09EEC1EF080C08DF081C0BC
:100A18008EF082C08FF083C090F00A0E0001916FB3
:100A2800000E926F000E936F000E946FA5EC20F0ED
:100A380000018D51300F0001EB6F44D0E4C080F00D
:100A4800E5C081F0E6C082F0E7C083F0DCC0CCF0FE
:100A5800DDC0CDF00001D890CC37CD370001D8905B
:100A6800CC37CD37030E0001CC25F66EFF0ECD2115
:100A7800F76E0900F5CF84F00900F5CF85F009007D
:100A8800F5CF86F00A00F5CF87F09EEC1EF0000146
:100A980080510F0B0001D56F0001D551010D3B0EA0
:100AA800F324F66EFF0EF420F76E0800F5CFEBF096
:100AB80009D00001DA51800B000AD8B47DD7800A2A
:100AC800D8B4BCD70001EB511DEC25F00001DC07C0
:100AD800D8A0DD070001DC29ECE10001DD29D8A45C
:100AE800E8D7BFC0F6FFC0C0F7FF0001BF4BC02B5F
:100AF8000800F5CFEBF00001EB51D8B4120011EF6C
:100B080000F0420E4C6E000E4D6E0BEF0AF0250EF3
:100B18006118D8B405D0615033EC25F00BEF0AF01A
:100B2800000E4F6E000E4E6E000E516E000E506E8F
:100B380040C0F6FF41C0F7FF0800F550DFEC24F095
:100B4800D8A037D0000E4F6E000E4E6E4EC00FF07C
:100B58004FC010F0000E126E0A0E116EBAEC24F09F
:100B68000FC04EF010C04FF0D00E426EFF0E436E15
:100B780040C0F6FF41C0F7FF0800F550446E456AD3
:100B8800425044264350452244504E2645504F2259
:100B9800404A412A40C0F6FF41C0F7FF0800F5501F
:100BA800DFEC24F0D8A005D0D1D751841DD0508EC9
:100BB8001BD040C0F6FF41C0F7FF404A412A080059
:100BC800F5CF61F06150000AD8B41200640AD8B4B5
:100BD8000BD0020AD8B4E9D70F0AD8B405D0110A45
:100BE800D8B4E5D70BEF0AF0070E5114D8B4CCD21D
:100BF800000E536E060E526E4CC0D9FF4DC0DAFF80
:100C0800DECF5EF0DECF5FF0DDCF60F0030E4C2666
:100C1800000E4D2260AE10D05EC001F05FC002F041
:100C280060C003F0CDEC24F001C05EF002C05FF0BC
:100C380003C060F0030E5012000E596E000E586E7D
:100C48005E505F106010D8B483D0820E426EFF0EE3
:100C5800436E5EC044F05FC045F060C046F061C0BE
:100C680047F0100E05D0D89047324632453244320C
:100C7800E82EF9D744504224586E000E4320596E8E
:100C88005806D8A0590658C00FF059C010F0000EE9
:100C9800126E030E116EBAEC24F00FC058F010C09B
:100CA80059F058C007F059C008F0000E0A6E0A0E35
:100CB800096E3AEC21F007C058F008C059F059AE57
:100CC80003D05806D8A059065850000814EC0FF065
:100CD80024C054F025C055F026C056F054C015F075
:100CE80055C016F056C017F05EC018F05FC019F076
:100CF80060C01AF085EC1CF015C054F016C055F011
:100D080017C056F054C001F055C002F056C003F0A9
:100D1800000E046E800E056E3F0E066EF2EC20F09B
:100D2800D8B004D05806D8A0590612D054C001F043
:100D380055C002F056C003F0000E046E200E056E7A
:100D4800410E066EF2EC20F0D8A002D0584A592A7B
:100D580053BE06D053501BE10D0E525CD8B017D0CD
:100D68005EC02EF05FC02FF060C030F0525096EC9D
:100D780013F024C031F025C032F026C033F0DAEC8D
:100D880015F02EC05EF02FC05FF030C060F059BE85
:100D980006D059501EE10A0E585CD8B01AD05E50E1
:100DA8005F106010D8B451D05EC02BF05FC02CF03B
:100DB80060C02DF0FFEC1CF02B502C102D102E10C5
:100DC800D8B459BE42D0595004E1020E585CD8A09C
:100DD8003CD054C001F055C002F056C003F0700E6C
:100DE800046E890E056E400E066EF2EC20F0D8B047
:100DF80002D0F70E01D0F80E5826FF0E592258508F
:100E080014EC0FF024C054F025C055F026C056F05D
:100E18005EC001F05FC002F060C003F054C004F08F
:100E280055C005F056C006F03AEC1AF001C05AF069
:100E380002C05BF003C05CF004C05DF0000E5E6EA3
:100E4800000E5F6E000E606E32D05EC02BF05FC089
:100E58002CF060C02DF0FFEC1CF02BC05AF02CC019
:100E68005BF02DC05CF02EC05DF05EC03AF05FC054
:100E78003BF060C03CF05AC009F05BC00AF05CC0AF
:100E88000BF05DC00CF0F8EC22F009C03DF00AC090
:100E98003EF00BC03FF0E4EC23F03AC05EF03BC0FC
:100EA8005FF03CC060F0000E596E000E586E010EE7
:100EB800616E0A0E6118D8B418D06150040D8D0EF9
:100EC800F324F66EFE0EF420F76E0900F5505A5C16
:100ED8000900F5505B580900F5505C580900F550B9
:100EE8005D58D8A002D0612AE4D761C042F0436AB5
:100EF80042BE43065250422653504322585042267F
:100F08005950432242504E5E43504F5A525053104C
:100F1800D8B403D04E06D8A04F06030E5014426E24
:100F2800000E5114436E42504310D8B407D003D07A
:100F3800200E33EC25F04E06D8A04F064FBE05D044
:100F48004F50F6E14E04D8B0F3D7030E5014426E5A
:100F5800000E5114436E42504310D8B448D02D0EA1
:100F680033EC25F044D05AC001F05BC002F05CC0FD
:100F780003F05DC004F06150040D8D0EF324F66E8D
:100F8800FE0EF420F76E0900F5CF05F00900F5CF45
:100F980006F00900F5CF07F00A00F5CF08F07CEC61
:100FA80021F001C054F002C055F003C056F004C04F
:100FB80057F054C00EF055C00FF056C010F057C08F
:100FC80011F00A0E126E000E136E000E146E000E53
:100FD800156E67EC22F00EC054F00FC055F010C02B
:100FE80056F011C057F05450300F33EC25F061061D
:100FF8006128D8B407D0B7D7300E33EC25F058069F
:10100800D8A0590659BE05D05950F6E15804D8B0B1
:10101800F3D753BE09D0535004E1090E525CD8A04F
:1010280003D0080E616E02D052C061F06150525E6A
:10103800000E61BEFF0E535A6150D8B403D02E0E75
:1010480033EC25F0615014EC0FF024C048F025C0B3
:1010580049F026C04AF05EC018F05FC019F060C0C1
:101068001AF048C015F049C016F04AC017F085ECD0
:101078001CF015C02BF016C02CF017C02DF0FFEC9B
:101088001CF02BC05AF02CC05BF02DC05CF02EC0B9
:101098005DF06AD05AC001F05BC002F05CC003F09A
:1010A8005DC004F06150040D8D0EF324F66EFE0E43
:1010B800F420F76E0900F5CF05F00900F5CF06F02A
:1010C8000900F5CF07F00A00F5CF08F07CEC21F015
:1010D80001C054F002C055F003C056F004C057F0E8
:1010E80054C00EF055C00FF056C010F057C011F0A4
:1010F8000A0E126E000E136E000E146E000E156EA0
:1011080067EC22F00EC054F00FC055F010C056F036
:1011180011C057F05450300F33EC25F05AC00EF080
:101128005BC00FF05CC010F05DC011F06150040DA1
:101138008D0EF324F66EFE0EF420F76E0900F5CF3F
:1011480012F00900F5CF13F00900F5CF14F00A00EA
:10115800F5CF15F067EC22F00EC05AF00FC05BF027
:1011680010C05CF011C05DF061066128D8B407D0EA
:1011780091D7300E33EC25F05206D8A053065250C2
:101188005310D8B444D1F5D750BE1ED04CC0D9FFA7
:101198004DC0DAFFDECF5AF0DDCF5BF0000E5BBE4C
:1011A800FF0E5C6E5D6E020E4C26000E4D225DAE8B
:1011B8005AD0030E50125D1E5C1E5B1E5A6C000E48
:1011C8005B225C225D224FD04CC0D9FF4DC0DAFFB4
:1011D800DECF42F0DDCF43F042C05AF043C05BF0AF
:1011E8005C6A5D6A020E4C26000E4D223CD0010E50
:1011F800616E0A0E6118D8B43ED06150040D8D0E90
:10120800F324F66EFE0EF420F76E0900F5505A5CD2
:101218000900F5505B580900F5505C580900F55075
:101228005D58D8A028D0612AE4D7010E616E080E57
:101238006118D8B420D06150040D030EF324F66E63
:10124800FF0EF420F76E0900F5505A5C0900F550BE
:101258005B580900F5505C580900F5505D58D8A056
:101268000AD0612AE4D75050800B000AD8B4BFD7FF
:10127800800AD8B4DAD74E504F10D8B40DD0030E28
:101288005014426E000E5114436E42504310D8B4AD
:1012980003D04E06D8A04F06800E61BE7F0E426E68
:1012A8004E50615C4F50800A4258D8B007D0615008
:1012B8004E5E000E61BEFF0E4F5A04D0000E4F6EF8
:1012C800000E4E6E4E504F10D8B40AD0200E33EC9C
:1012D80025F04E06D8A04F064E504F10D8A4F6D78A
:1012E800030E5014426E000E5114436E42504310C8
:1012F800D8B403D02D0E33EC25F06150526E536AEA
:1013080052BE53067CD052C042F053C043F0D8902E
:1013180042364336D890423643368D0E4224F66E16
:10132800FE0E4320F76E0900F5CF05F00900F5CF52
:1013380006F00900F5CF07F00A00F5CF08F05AC00B
:1013480001F05BC002F05CC003F05DC004F07CEC0F
:1013580021F001C00EF002C00FF003C010F004C06D
:1013680011F00A0E126E000E136E000E146E000EAF
:10137800156E67EC22F00E50300F616E3DD05AC0EA
:1013880001F05BC002F05CC003F05DC004F052C025
:1013980042F053C043F0D89042364336D890423694
:1013A8004336030E4224F66EFF0E4320F76E090003
:1013B800F5CF05F00900F5CF06F00900F5CF07F0E5
:1013C8000A00F5CF08F07CEC21F001500F0B4B6EB2
:1013D8004B50010D3B0EF324F66EFF0EF420F76E12
:1013E8000800F5CF61F008D05050800B000AD8B43F
:1013F8008AD7800AD8B4C3D7615033EC25F0520697
:10140800D8A053065228F0E15328D8A4EDD740C0FD
:10141800F6FF41C0F7FF404A412A0800F5CF61F0C6
:101428006150D8B412008BEF05F092689368000EF3
:10143800946E000E956E000E966E000E896E000E6C
:101448008A6E000E8B6E000E8C6E000E8D6E000E76
:10145800C26EC168F19EF086000EC26E1B0EC16E90
:10146800B496C08EF28EF29E100E00018D6F270E7C
:101478008E6F000E8F6F000E906F9AEC22F09FEC2B
:1014880023F0000E01011E6F000E1D6FF28E010188
:101498000A5101010B11D8B416D18B8C000E010131
:1014A800096F010E086F1FEC24F0CAEC22F0000E41
:1014B80001011C6F010E1B6F84D080A804D00001AD
:1014C800FB6BFB2B02D00001FB6B0001FB51010100
:1014D8001B6F1C6B000E0001816F640E806F000E85
:1014E8000001836F050E826F51EC23F001011B513F
:1014F80001011C11D8A415D0020E68EC24F00101DA
:10150800004B012B020E01010227000E0323030EDC
:1015180001010627000E0723040E01010427000E0F
:101528000523140E0001836F010E0001846FDDECAA
:101538001DF0140E0001806F010E0001816FACECEC
:101548001FF080C008F181C009F17F0E0001BF6F54
:10155800FF0E0001C06F08C1C1F009C1C2F01BC174
:10156800C3F01CC1C4F0C4CFC5F00001C66BC3CF23
:10157800C7F00001C86BC4CFB2F00001B36BC3CF92
:10158800B4F00001B56B01EC20F0B2C0C9F0B3C0F3
:10159800CAF0B4C0CBF009EC00F0040E0001FC6FF7
:1015A8000C0E0001FB6F330EE82EFED7FB2FFCD785
:1015B800FC2FFAD700D008C180F009C181F0EEEC09
:1015C80024F0010113510BE10F0E0101125DD8B097
:1015D80006D001010C5101010D11D8B46ED71DC1FF
:1015E80080F01EC181F000C182F093EC24F01DC18F
:1015F80080F01EC181F008EC25F080C01DF181C08B
:101608001EF11DC180F01EC181F002C182F093EC71
:1016180024F01DC180F01EC181F008EC25F080C0C7
:101628001DF181C01EF11DC180F01EC181F006C1EF
:1016380082F093EC24F01DC180F01EC181F008EC0B
:1016480025F080C01DF181C01EF11DC180F01EC1B2
:1016580081F004C182F093EC24F01DC180F01EC11A
:1016680081F008EC25F080C01DF181C01EF11DC17C
:1016780080F01EC181F008C182F093EC24F01DC1F6
:1016880080F01EC181F008EC25F080C01DF181C0FA
:101698001EF18B9001010C5101010D11D8A402D04B
:1016A800010E01D0000E01010C6F0D6B01010A51F2
:1016B80001010B11D8A402D0010E01D0000E0101C6
:1016C8000A6F0B6BE4D601010E5101010F11D8A46A
:1016D8000AD04BD0F29E000E0001ED6F000EEC6FA9
:1016E800D3EC1AF0F28E080E010110190101111144
:1016F800D8A40AD0EFD7F29E000E0001ED6F280E95
:10170800EC6FD3EC1AF0F28E090E010110190101E9
:101718001111D8A40AD0EFD7F29E000E0001ED6F88
:10172800500EEC6FD3EC1AF0F28E0A0E010110196C
:1017380001011111D8A4ABD6EFD7F29E800E25EC8B
:1017480025F09F0E0001BF6FFF0E0001C06F09EC6E
:1017580000F0C00E25EC25F0900E0001BF6FFF0EC3
:101768000001C06F09EC00F0F28E01011051010177
:101778001111D8A423D001010A5101010B11D8A4D9
:101788001DD0DBD7F29E800E25EC25F05D0E000102
:10179800BF6FFF0E0001C06F08C1C1F009C1C2F0E0
:1017A80009EC00F0C00E25EC25F0900E0001BF6F8B
:1017B800FF0E0001C06F09EC00F0F28E0101100568
:1017C80001011111D8A41DD0DDD7F29E800E25ECA1
:1017D80025F0EF0E0001BF6FFF0E0001C06F12C1B0
:1017E800C1F013C1C2F009EC00F0C00E25EC25F0E1
:1017F800900E0001BF6FFF0E0001C06F09EC00F0F2
:10180800F28E020E0101101901011111D8A41DD088
:10181800DCD7F29E800E25EC25F0AE0E0001BF6FDE
:10182800FF0E0001C06F00C1C1F001C1C2F009EC98
:1018380000F0C00E25EC25F0900E0001BF6FFF0EE2
:101848000001C06F09EC00F0F28E030E01011019BF
:1018580001011111D8A41DD0DCD7F29E800E25EC11
:1018680025F0CA0E0001BF6FFF0E0001C06F02C154
:10187800C1F003C1C2F009EC00F0C00E25EC25F060
:10188800900E0001BF6FFF0E0001C06F09EC00F061
:10189800F28E040E0101101901011111D8A41DD0F6
:1018A800DCD7F29E800E25EC25F0BC0E0001BF6F40
:1018B800FF0E0001C06F06C1C1F007C1C2F009ECFC
:1018C80000F0C00E25EC25F0900E0001BF6FFF0E52
:1018D8000001C06F09EC00F0F28E050E010110192D
:1018E80001011111D8A41DD0DCD7F29E800E25EC81
:1018F80025F0E30E0001BF6FFF0E0001C06F04C1A9
:10190800C1F005C1C2F009EC00F0C00E25EC25F0CD
:10191800900E0001BF6FFF0E0001C06F09EC00F0D0
:10192800F28E060E0101101901011111D8A419D067
:10193800DCD7F29E800E25EC25F0D70E0001BF6F94
:10194800FF0E0001C06F09EC00F0C00E25EC25F079
:10195800900E0001BF6FFF0E0001C06F09EC00F090
:10196800F28E070E0101101901011111D8A48FD5AB
:10197800E0D70001A96F0001A9AF2AD10001A96D24
:101988000001A951800A120FD8A0ACD0000E0001A6
:10199800916F030E906F000E0001896F0A0E886F19
:1019A800000E0001836F640E826F0001A9510001CF
:1019B800806F816B80BF810754EC20F080C086F077
:1019C80081C087F03FEC1EF0090E0001862500015A
:1019D8008E6F000E0001872100018F6F04EC24F048
:1019E800B50E00018E25F66EFE0E00018F21F76EF2
:1019F8000900F5CF97F00900F5CF98F00A00F5CF68
:101A080099F0000E0001896F640E886F0001A951DA
:101A18000001866F876B86BF87073FEC1EF0120EAA
:101A28000001862500018E6F000E0001872100014C
:101A38008F6F000E0001916F030E906F04EC24F07D
:101A4800B50E00018E25F66EFE0E00018F21F76E91
:101A58000900F5CF94F00900F5CF95F00A00F5CF0D
:101A680096F043EC18F094C0A6F095C0A7F096C085
:101A7800A8F0A6C094F0A7C095F0A8C096F0000EF4
:101A88000001916F030E906F000E0001836F0A0E24
:101A9800826F0001A9510001806F816B80BF8107AF
:101AA80054EC20F080C08EF081C08FF004EC24F05C
:101AB800B50E00018E25F66EFE0E00018F21F76E21
:101AC8000900F5CF97F00900F5CF98F00A00F5CF97
:101AD80099F043EC18F094C0A3F095C0A4F096C018
:101AE800A5F012000001A951800A750FD8A05DD099
:101AF800000E0001896F0A0E886F0001A9510001CC
:101B0800866F876B86BF87073FEC1EF0090E0001C2
:101B1800862500018E6F000E0001872100018F6F5E
:101B2800000E0001916F030E906F04EC24F0B50EC7
:101B380000018E25F66EFE0E00018F21F76E09005A
:101B4800F5CF94F00900F5CF95F00A00F5CF96F09F
:101B5800000E0001916F030E906F000E0001836F5D
:101B68000A0E826F0001A9510001806F816B80BF4E
:101B7800810754EC20F080C08EF081C08FF004EC17
:101B880024F0B50E00018E25F66EFE0E00018F21A1
:101B9800F76E0900F5CF97F00900F5CF98F00A0025
:101BA800F5CF99F043EC18F096D70001A951030D31
:101BB800B50EF324F66EFE0EF420F76E0900F5CF8D
:101BC800A3F00900F5CFA4F00A00F5CFA5F01200A4
:101BD8000001A951800A120FD8A0ACD0000E000154
:101BE800916F030E906F000E0001896F0A0E886FC7
:101BF800000E0001836F640E826F0001A95100017D
:101C0800806F816B80BF810754EC20F080C086F024
:101C180081C087F03FEC1EF0090E00018625000107
:101C28008E6F000E0001872100018F6F04EC24F0F5
:101C3800DC0E00018E25F66EFE0E00018F21F76E78
:101C48000900F5CF97F00900F5CF98F00A00F5CF15
:101C580099F0000E0001896F640E886F0001A95188
:101C68000001866F876B86BF87073FEC1EF0120E58
:101C78000001862500018E6F000E000187210001FA
:101C88008F6F000E0001916F030E906F04EC24F02B
:101C9800DC0E00018E25F66EFE0E00018F21F76E18
:101CA8000900F5CF94F00900F5CF95F00A00F5CFBB
:101CB80096F043EC18F094C0A6F095C0A7F096C033
:101CC800A8F0A6C094F0A7C095F0A8C096F0000EA2
:101CD8000001916F030E906F000E0001836F0A0ED2
:101CE800826F0001A9510001806F816B80BF81075D
:101CF80054EC20F080C08EF081C08FF004EC24F00A
:101D0800DC0E00018E25F66EFE0E00018F21F76EA7
:101D18000900F5CF97F00900F5CF98F00A00F5CF44
:101D280099F043EC18F094C0A3F095C0A4F096C0C5
:101D3800A5F012000001A951800A750FD8A05DD046
:101D4800000E0001896F0A0E886F0001A951000179
:101D5800866F876B86BF87073FEC1EF0090E000170
:101D6800862500018E6F000E0001872100018F6F0C
:101D7800000E0001916F030E906F04EC24F0DC0E4E
:101D880000018E25F66EFE0E00018F21F76E090008
:101D9800F5CF94F00900F5CF95F00A00F5CF96F04D
:101DA800000E0001916F030E906F000E0001836F0B
:101DB8000A0E826F0001A9510001806F816B80BFFC
:101DC800810754EC20F080C08EF081C08FF004ECC5
:101DD80024F0DC0E00018E25F66EFE0E00018F2128
:101DE800F76E0900F5CF97F00900F5CF98F00A00D3
:101DF800F5CF99F043EC18F096D70001A951030DDF
:101E0800DC0EF324F66EFE0EF420F76E0900F5CF13
:101E1800A3F00900F5CFA4F00A00F5CFA5F0120051
:101E28002A6E2AAEFBD02A6C2A50800A120FD8A03C
:101E380091D0000E126E030E116E000E0A6E0A0E7D
:101E4800096E000E046E640E036E2A50016E026A5B
:101E580001BE0206FBEC21F001C007F002C008F049
:101E68003AEC21F0090E07240F6E000E0820106EC0
:101E7800BAEC24F0B50E0F24F66EFE0E1020F76EA5
:101E88000900F5CF18F00900F5CF19F00A00F5CFD1
:101E98001AF0000E0A6E640E096E2A50076E086A60
:101EA80007BE08063AEC21F0120E07240F6E000E4A
:101EB8000820106E000E126E030E116EBAEC24F09C
:101EC800B50E0F24F66EFE0E1020F76E0900F5CF42
:101ED80015F00900F5CF16F00A00F5CF17F085ECDC
:101EE8001CF015C027F016C028F017C029F027C02D
:101EF80015F028C016F029C017F0000E126E030E58
:101F0800116E000E046E0A0E036E2A50016E026AEC
:101F180001BE0206FBEC21F001C00FF002C010F078
:101F2800BAEC24F0B50E0F24F66EFE0E1020F76EF4
:101F38000900F5CF18F00900F5CF19F00A00F5CF20
:101F48001AF085EC1CF015C024F016C025F017C057
:101F580026F012002A50800A750FD8A04DD0000E26
:101F68000A6E0A0E096E2A50076E086A07BE08062E
:101F78003AEC21F0090E07240F6E000E0820106EAF
:101F8800000E126E030E116EBAEC24F0B50E0F247B
:101F9800F66EFE0E1020F76E0900F5CF15F0090059
:101FA800F5CF16F00A00F5CF17F0000E126E030EEB
:101FB800116E000E046E0A0E036E2A50016E026A3C
:101FC80001BE0206FBEC21F001C00FF002C010F0C8
:101FD800BAEC24F0B50E0F24F66EFE0E1020F76E44
:101FE8000900F5CF18F00900F5CF19F00A00F5CF70
:101FF8001AF085EC1CF0A7D72A50030DB50EF32470
:10200800F66EFE0EF420F76E0900F5CF24F00900F5
:10201800F5CF25F00A00F5CF26F012002A50800AE5
:10202800120FD8A091D0000E126E030E116E000E82
:102038000A6E0A0E096E000E046E640E036E2A50B4
:10204800016E026A01BE0206FBEC21F001C007F036
:1020580002C008F03AEC21F0090E07240F6E000EBA
:102068000820106EBAEC24F0DC0E0F24F66EFE0E7B
:102078001020F76E0900F5CF18F00900F5CF19F018
:102088000A00F5CF1AF0000E0A6E640E096E2A5087
:10209800076E086A07BE08063AEC21F0120E0724FC
:1020A8000F6E000E0820106E000E126E030E116ED9
:1020B800BAEC24F0DC0E0F24F66EFE0E1020F76E3C
:1020C8000900F5CF15F00900F5CF16F00A00F5CF95
:1020D80017F085EC1CF015C027F016C028F017C0C3
:1020E80029F027C015F028C016F029C017F0000EF7
:1020F800126E030E116E000E046E0A0E036E2A5045
:10210800016E026A01BE0206FBEC21F001C00FF06D
:1021180002C010F0BAEC24F0DC0E0F24F66EFE0EAE
:102128001020F76E0900F5CF18F00900F5CF19F067
:102138000A00F5CF1AF085EC1CF015C024F016C083
:1021480025F017C026F012002A50800A750FD8A073
:102158004DD0000E0A6E0A0E096E2A50076E086AE4
:1021680007BE08063AEC21F0090E07240F6E000E90
:102178000820106E000E126E030E116EBAEC24F0D9
:10218800DC0E0F24F66EFE0E1020F76E0900F5CF58
:1021980015F00900F5CF16F00A00F5CF17F0000E7C
:1021A800126E030E116E000E046E0A0E036E2A5094
:1021B800016E026A01BE0206FBEC21F001C00FF0BD
:1021C80002C010F0BAEC24F0DC0E0F24F66EFE0EFE
:1021D8001020F76E0900F5CF18F00900F5CF19F0B7
:1021E8000A00F5CF1AF085EC1CF0A7D72A50030D8A
:1021F800DC0EF324F66EFE0EF420F76E0900F5CF20
:1022080024F00900F5CF25F00A00F5CF26F01200DA
:102218000001AC6F6D0E0001AC65BAD0000E000174
:10222800916F030E906F000E0001896F0A0E886F80
:10223800000E0001836F640E826FACC080F0000155
:10224800816B54EC20F080C086F081C087F03FECB1
:102258001EF0090E0001862500018E6F000E000198
:10226800872100018F6F04EC24F0B50E00018E2544
:10227800F66EFE0E00018F21F76E0900F5CF97F07C
:102288000900F5CF98F00A00F5CF99F0000E00018B
:10229800896F640E886FACC086F00001876B3FECD5
:1022A8001EF0120E0001862500018E6F000E00013F
:1022B800872100018F6F000E0001916F030E906F50
:1022C80004EC24F0B50E00018E25F66EFE0E00011A
:1022D8008F21F76E0900F5CF94F00900F5CF95F03E
:1022E8000A00F5CF96F043EC18F094C0A9F095C019
:1022F800AAF096C0ABF0000E0001916F030E906F2C
:10230800000E0001836F0A0E826FACC080F00001DE
:10231800816B54EC20F080C08EF081C08FF004EC0B
:1023280024F0B50E00018E25F66EFE0E00018F21F9
:10233800F76E0900F5CF97F00900F5CF98F00A007D
:10234800F5CF99F0A9C094F0AAC095F0ABC096F06B
:1023580043EC18F094C0A6F095C0A7F096C0A8F07A
:10236800A6C094F0A7C095F0A8C096F0000E000192
:10237800976F000E0001986F3F0E0001996F43ECB4
:1023880018F094C0A3F095C0A4F096C0A5F0120070
:102398000A0E0001AC656ED0000E0001916F030EAD
:1023A800906F000E0001836F0A0E826FACC080F040
:1023B8000001816B54EC20F080C08EF081C08FF05A
:1023C80004EC24F0B50E00018E25F66EFE0E000119
:1023D8008F21F76E0900F5CF97F00900F5CF98F037
:1023E8000A00F5CF99F0000E0001896F0A0E886F78
:1023F800ACC086F00001876B3FEC1EF0090E0001AF
:10240800862500018E6F000E0001872100018F6F65
:10241800000E0001916F030E906F04EC24F0B50ECE
:1024280000018E25F66EFE0E00018F21F76E090061
:10243800F5CF94F00900F5CF95F00A00F5CF96F0A6
:1024480043EC18F094C0A9F095C0AAF096C0ABF080
:10245800A9C094F0AAC095F0ABC096F0000E000198
:10246800976F000E0001986F3F0E0001996F43ECC3
:1024780018F087D70001AC51030DB50EF324F66EA2
:10248800FE0EF420F76E0900F5CF94F00900F5CFA1
:1024980095F00A00F5CF96F0000E0001976F000E38
:1024A8000001986F3F0E0001996F43EC18F094C03B
:1024B800A3F095C0A4F096C0A5F01200AFC0B3F089
:1024C8000001B46BB56B0001AE350001B33701E311
:1024D800B4810001B3510001B86FB2C0B3F000017C
:1024E800B46BB56B0001B1350001B33701E3B481BA
:1024F8000001B3510001B76F0001B8510001D8B411
:1025080011D00001B7510001B85DD8B012D0000158
:10251800B85100080001B7250001B36F180E00017B
:10252800B36507D0B0C0ADF0B1C0AEF0B2C0AFF087
:1025380012000001B7510001D8B411D00001B85100
:102548000001B75DD8B012D00001B75100080001F2
:10255800B8250001B36F180E0001B36507D0ADC0F0
:10256800ADF0AEC0AEF0AFC0AFF01200060E000185
:10257800B66F0001AFAF02D00001B68F0001B2AF55
:1025880002D00001B68D0001AE8FFF0E0001AD171D
:10259800FF0E0001AE17000E0001AF170001B18F4A
:1025A800FF0E0001B017FF0E0001B117000E000169
:1025B800B2170001B7510001B85DD8B025D00001AD
:1025C800D890B037B137B2370001B7070001B8511A
:1025D8000001B719D8B411D00001B607B6C0B3F0DE
:1025E800070E0001B317D8B408D0E9D70001D89076
:1025F800AF33AE33AD330001B82B0001B751000142
:10260800B819D8B42BD0F2D70001B8510001B75D82
:10261800D8B024D00001D890AD37AE37AF3700011D
:10262800B8070001B8510001B719D8B411D000019A
:10263800B607B6C0B3F0070E0001B317D8B408D078
:10264800E9D70001D890B233B133B0330001B72BCA
:102658000001B7510001B819D8A4F3D70001B6AFEB
:1026680012D0FF0E0001AD1BFF0E0001AE1BFF0EC6
:102678000001AF1B010E0001AD27000E0001AE23C3
:10268800000E0001AF230001B6AD12D0FF0E00010D
:10269800B01BFF0E0001B11BFF0E0001B21B010EA3
:1026A8000001B027000E0001B123000E0001B22383
:1026B800000E0001B66F0001AD510001B027000106
:1026C800AE510001B1230001AF510001B223000156
:1026D800B2AF15D0FF0E0001B01BFF0E0001B11BF9
:1026E800FF0E0001B21B010E0001B027000E000111
:1026F800B123000E0001B223010E0001B66FB0C075
:1027080080F0B1C081F0B2C082F0B8C083F0B6C02A
:1027180084F0FFEC1BF080C0ADF081C0AEF082C049
:10272800AFF012002D6E6D0E2D649FD0000E126E4C
:10273800030E116E000E0A6E0A0E096E000E046E6C
:10274800640E036E2DC001F0026AFBEC21F001C09B
:1027580007F002C008F03AEC21F0090E07240F6ECA
:10276800000E0820106EBAEC24F0B50E0F24F66E99
:10277800FE0E1020F76E0900F5CF18F00900F5CF0E
:1027880019F00A00F5CF1AF0000E0A6E640E096EF1
:102798002DC007F0086A3AEC21F0120E07240F6EDC
:1027A800000E0820106E000E126E030E116EBAECA9
:1027B80024F0B50E0F24F66EFE0E1020F76E0900F9
:1027C800F5CF15F00900F5CF16F00A00F5CF17F090
:1027D80085EC1CF015C02AF016C02BF017C02CF0A1
:1027E800000E126E030E116E000E046E0A0E036EBA
:1027F8002DC001F0026AFBEC21F001C00FF002C00D
:1028080010F0BAEC24F0B50E0F24F66EFE0E102070
:10281800F76E0900F5CF18F00900F5CF19F00A0096
:10282800F5CF1AF02AC015F02BC016F02CC017F0FF
:1028380085EC1CF015C027F016C028F017C029F049
:1028480027C015F028C016F029C017F0000E186E22
:10285800000E196E3F0E1A6E85EC1CF015C024F0A0
:1028680016C025F017C026F012000A0E2D645DD0A0
:10287800000E126E030E116E000E046E0A0E036E29
:102888002DC001F0026AFBEC21F001C00FF002C07C
:1028980010F0BAEC24F0B50E0F24F66EFE0E1020E0
:1028A800F76E0900F5CF18F00900F5CF19F00A0006
:1028B800F5CF1AF0000E0A6E0A0E096E2DC007F049
:1028C800086A3AEC21F0090E07240F6E000E082062
:1028D800106E000E126E030E116EBAEC24F0B50ED7
:1028E8000F24F66EFE0E1020F76E0900F5CF15F0D6
:1028F8000900F5CF16F00A00F5CF17F085EC1CF0AB
:1029080015C02AF016C02BF017C02CF02AC015F0FD
:102918002BC016F02CC017F0000E186E000E196EA2
:102928003F0E1A6E85EC1CF099D72D50030DB50E8D
:10293800F324F66EFE0EF420F76E0900F5CF15F0BD
:102948000900F5CF16F00A00F5CF17F0000E186E43
:10295800000E196E3F0E1A6E85EC1CF015C024F09F
:1029680016C025F017C026F01200646EF4D02A0EA7
:102978006418D8A40DD001010A5101010B11D8A483
:1029880002D0010E01D0000E01010A6F0B6B12007C
:10299800370E6418D8A406D0000E0101116F010E7D
:1029A800106F1200390E6418D8A41200000E01012D
:1029B800116F020E106F1200370E6418D8A406D0DB
:1029C800000E0101116F070E106F1200390E641806
:1029D800D8A41200000E0101116F000E106F120032
:1029E800370E6418D8A406D0000E0101116F000E2E
:1029F800106F1200390E6418D8A41200000E0101DD
:102A0800116F030E106F1200370E6418D8A406D089
:102A1800000E0101116F020E106F1200390E6418BA
:102A2800D8A41200000E0101116F040E106F1200DD
:102A3800370E6418D8A406D0000E0101116F030EDA
:102A4800106F1200390E6418D8A41200000E01018C
:102A5800116F050E106F1200370E6418D8A406D037
:102A6800000E0101116F040E106F1200390E641868
:102A7800D8A41200000E0101116F060E106F12008B
:102A8800370E6418D8A406D0000E0101116F050E88
:102A9800106F1200390E6418D8A41200000E01013C
:102AA800116F070E106F1200310E6418D8A40BD0E6
:102AB800000E01010F6F010E0E6F000E0101116F64
:102AC800080E106F1200320E6418D8A40BD0000E36
:102AD80001010F6F020E0E6F000E0101116F090E3A
:102AE800106F1200330E6418D8A40BD0000E010129
:102AF8000F6F030E0E6F000E0101116F0A0E106F9B
:102B08001200370E6418D8A406D0000E0101116F08
:102B1800060E106F1200390E6418D8A41200000EA9
:102B28000101116F010E106F1200380E6418D8A43D
:102B38001200000E0101116F070E106F000E010147
:102B48000F6F000E0E6F1200F90E406EFF0E416EF1
:102B580085EC05F0120010C162F011C163F06350FA
:102B6800000AD8A4F1D76250000AD8B400D7010AE5
:102B7800D8B422D7030AD8B433D7010AD8B444D773
:102B8800070AD8B455D7010AD8B466D7030AD8B407
:102B980077D7010AD8B488D70F0AD8B4C6D7010A9C
:102BA800D8B4C3D7030AD8B4C0D7CED730C034F00E
:102BB800356A366A2F34343601E335803450396E3D
:102BC80033C034F0356A366A3234343601E335803E
:102BD8003450386E3950D8B40BD03850395CD8B02E
:102BE8000ED0395000083824346E180E346407D0DB
:102BF80031C02EF032C02FF033C030F01200385000
:102C0800D8B40BD03950385CD8B00ED03850000842
:102C18003924346E180E346407D02EC02EF02FC01D
:102C28002FF030C030F01200060E376E30BE378EEF
:102C380033BE378C2F8EFF0E2E16FF0E2F16000E6A
:102C48003016328EFF0E3116FF0E3216000E331676
:102C58003850395CD8B01BD0D8903136323633363C
:102C6800380639503818D8B40DD0370637C034F084
:102C7800070E3416D8B406D0EFD7D89030322F329A
:102C88002E32392A38503918D8B41FD0F6D73950CF
:102C9800385CD8B01AD0D8902E362F363036390650
:102CA80039503818D8B40DD0370637C034F0070E6D
:102CB8003416D8B406D0EFD7D89033323232313206
:102CC800382A38503918D8A4F7D737AE0CD0FF0EA9
:102CD8002E1AFF0E2F1AFF0E301A010E2E26000E86
:102CE8002F22000E302237AC0CD0FF0E311AFF0E07
:102CF800321AFF0E331A010E3126000E3222000E50
:102D08003322000E376E2E5031262F50322230508B
:102D1800332233AE0ED0FF0E311AFF0E321AFF0ED9
:102D2800331A010E3126000E3222000E3322010E14
:102D3800376E31C001F032C002F033C003F039C041
:102D480004F037C005F055EC1FF001C02EF002C0AA
:102D58002FF003C030F0120082C086F00001876BAC
:102D6800886B000181350001863701E38781000106
:102D7800865100018E6F00018E51D8A40AD0000E32
:102D88000001806F000E816F000E826F000E836F4E
:102D9800120085C086F00001876B886B00018435BE
:102DA8000001863701E387810001865100018D6F9C
:102DB80000018D51D8A40AD0000E0001806F000ECA
:102DC800816F000E826F000E836F12000001818FE9
:102DD800FF0E00018017FF0E00018117000E000191
:102DE80082170001848FFF0E00018317FF0E000178
:102DF8008417000E00018517000E0001896F000E70
:102E08008A6F000E8B6F000E8C6F7F0E00018E5F35
:102E180000018D51980F00018E5F180E00018D6F13
:102E28000001D89089378A378B378C370001835156
:102E38000001805D00018451000181590001855124
:102E480000018259D8A00ED0000183510001805F93
:102E5800000184510001815B000185510001825B02
:102E6800000189810001D8908037813782370001BD
:102E78008D2FD6D700018EAF1AD000018E51800A4F
:102E8800970FD8B00AD0000E0001806F000E816F36
:102E9800000E826F000E836F12000001D8908C33F1
:102EA8008B338A33893300018E3FF7D71BD0170E37
:102EB80000018E6512D0000E0001806F000E816F38
:102EC800000E826F000E836F12000001D8908937C0
:102ED8008A378B378C3700018E0700018E5100012D
:102EE800D8A4F3D789C080F08AC081F08BC082F063
:102EF8008CC083F0120000018235833500018B6F8E
:102F080000018B51D8A40AD0000E0001806F000E7A
:102F1800816F000E826F000E836F120000018535ED
:102F2800863500018A6F00018A51D8A40AD0000EA4
:102F38000001806F000E816F000E826F000E836F9C
:102F480012000001828FFF0E00018017FF0E81170B
:102F5800FF0E8217000E83170001858FFF0E0001F8
:102F68008317FF0E8417FF0E8517000E8617000EB5
:102F78000001866F000E876F000E886F000E896F44
:102F88007F0E00018B5F00018A51A00F00018B5F4B
:102F9800200E00018A6F0001D8908637873788375E
:102FA8008937000183510001805D000184510001CF
:102FB80081590001855100018259000186510001A3
:102FC8008359D8A012D0000183510001805F00010D
:102FD80084510001815B000185510001825B000181
:102FE80086510001835B000186810001D8908037FB
:102FF80081378237833700018A2FCDD700018BAF05
:103008001AD000018B51800A9F0FD8B00AD0000E49
:103018000001806F000E816F000E826F000E836FBB
:1030280012000001D8908933883387338633000132
:103038008B3FF7D71BD01F0E00018B6512D0000EF7
:103048000001806F000E816F000E826F000E836F8B
:1030580012000001D89086378737883789370001F2
:103068008B0700018B510001D8A4F3D786C080F0EC
:1030780087C081F088C082F089C083F0120096C0B2
:103088009AF000019B6B9C6B0001953500019A3703
:1030980001E39B8100019A5100019D6F00019D5140
:1030A800D8A40AD0000E0001946F000E0001956F9D
:1030B800000E0001966F120099C09AF000019B6BF8
:1030C8009C6B0001983500019A3701E39B81000150
:1030D8009A510001A26F0001A251D8A40AD0000E93
:1030E8000001946F000E0001956F000E0001966FAD
:1030F80012000001A2517B0F00019D2796C0A2F08B
:10310800000199510001A21B800E0001A2170001C5
:10311800958F0001988FFF0E00019717FF0E000191
:103128009817000E00019917000E00019E6F000EFF
:1031380000019F6F000E0001A06F070E0001A16F34
:10314800000194A10CD00001975100019E270001B5
:10315800985100019F23000199510001A02300010B
:10316800D8909633953394330001D8909737983791
:1031780099370001A12FE4D7090E0001A16F0001C2
:1031880094A10CD00001975100019E27000198518D
:1031980000019F23000199510001A0230001D8904C
:1031A8009633953394330001D890A0339F339E33E0
:1031B8000001A12FE4D79EC080F09FC081F0A0C07D
:1031C80082F09DC083F0A2C084F0FFEC1BF080C0A9
:1031D80094F081C095F082C096F01200A5C0A9F0C5
:1031E8000001AA6BAB6B0001A4350001A93701E30C
:1031F800AA810001A9510001B06F0001B051D8A403
:103208000AD0000E0001A36F000E0001A46F000E8B
:103218000001A56F1200A8C0A9F00001AA6BAB6B52
:103228000001A7350001A93701E3AA810001A951CE
:103238000001B16F0001B151D8A40AD0000E0001FD
:10324800A36F000E0001A46F000E0001A56F12000D
:10325800000E0001AD6F000E0001AE6F000E000100
:10326800AF6F0001B151890F0001B05FA5C0B1F087
:103278000001A8510001B11B800E0001B117000127
:10328800A48FFF0E0001A317FF0E0001A417000E64
:103298000001A5170001A78FFF0E0001A617FF0E5A
:1032A8000001A717000E0001A817180E0001AC6F47
:1032B8000001D890AD37AE37AF370001A6510001F5
:1032C800A35D0001A7510001A4590001A851000104
:1032D800A559D8A00ED00001A6510001A35F000196
:1032E800A7510001A45B0001A8510001A55B0001E2
:1032F800AD810001D890A337A437A5370001AC2FC2
:10330800D7D7ADC080F0AEC081F0AFC082F0B0C0FA
:1033180083F0B1C084F0FFEC1BF080C0A3F081C043
:10332800A4F082C0A5F01200ACC0AEF00001AF6BF3
:10333800B06B0001AB350001AE3701E3AF8100018E
:10334800AE510001B86F0001B851D8A40AD0000EE0
:103358000001AA6F000EAB6F000EAC6F000EAD6FD0
:103368001200170E0001AE6FAAC0AFF0ABC0B0F0EC
:10337800ACC0B1F00001AE290001B26F05D0000168
:10338800D890B133B033AF330001B22FF8D7000172
:10339800AF510001B36F0001AB8FFF0E0001AA17F8
:1033A800FF0E0001AB17000E0001AC170001AA5177
:1033B8000001B46F0001AB510001B56F0001AC51C1
:1033C8000001B66F0001B76B8E0E0001B85F0001F7
:1033D800B8AF1AD00001B851800A8F0FD8B00AD000
:1033E800000E0001AA6F000EAB6F000EAC6F000E4E
:1033F800AD6F12000001D890B733B633B533B4338C
:103408000001B83FF7D71BD0170E0001B86512D0DE
:10341800000E0001AA6F000EAB6F000EAC6F000E1D
:10342800AD6F12000001D890B437B537B637B7374B
:103438000001B8070001B8510001D8A4F3D7000172
:10344800B3510001D8B409D00001B71FB61FB51F8A
:10345800B46D000EB523B623B723B4C0AAF0B5C027
:10346800ABF0B6C0ACF0B7C0ADF0120003C007F0C7
:10347800086A096A0234073601E3088007500F6EAC
:103488000F50D8A409D0000E016E000E026E000E77
:10349800036E000E046E120006C007F0086A096A7F
:1034A8000534073601E3088007500E6E0E50D8A485
:1034B80009D0000E016E000E026E000E036E000EA3
:1034C800046E1200028EFF0E0116FF0E0216000E89
:1034D8000316058EFF0E0416FF0E0516000E0616BF
:1034E800000E0A6E000E0B6E000E0C6E000E0D6EB6
:1034F8007F0E0F5E0E50980F0F5E180E0E6ED8904E
:103508000A360B360C360D360450015C055002584D
:1035180006500358D8A007D00450015E0550025A3F
:103528000650035A0A80D8900136023603360E2E0A
:10353800E6D70FAE16D00F50800A970FD8B009D033
:10354800000E016E000E026E000E036E000E046E79
:103558001200D8900D320C320B320A320F3EF9D7D6
:1035680015D0170E0F640FD0000E016E000E026EFC
:10357800000E036E000E046E1200D8900A360B3649
:103588000C360D360F060F50D8A4F7D70AC001F035
:103598000BC002F00CC003F00DC004F01200ECC028
:1035A800F9F0EDC0FAF0800E25EC25F0F9C080F0B6
:1035B800FAC081F0FCEC24F00001EE6F0001EE513E
:1035C8000001EF6FF06BF9C080F0FAC081F008ECF1
:1035D80025F080C0F9F081C0FAF0F9C080F0FAC097
:1035E80081F0FCEC24F00001EE6F0001EE510001C7
:1035F800F16FF26BF9C080F0FAC081F008EC25F0A9
:1036080080C0F9F081C0FAF0F9C080F0FAC081F00A
:10361800FCEC24F00001EE6F0001EE510001F36FA5
:10362800F46BF9C080F0FAC081F008EC25F080C096
:10363800F9F081C0FAF0F9C080F0FAC081F0FCEC32
:1036480024F00001EE6F0001EE510001F56FF66BFA
:10365800F9C080F0FAC081F008EC25F080C0F9F0DC
:1036680081C0FAF0F9C080F0FAC081F0FCEC24F0D7
:103678000001EE6F0001EE510001F76FF86B6E0E5E
:103688000001BF6FFF0E0001C06FEFC0C1F0F0C0B6
:10369800C2F0F1C0C3F0F2C0C4F0F3C0C5F0F4C08A
:1036A800C6F009EC00F0C00E25EC25F04C0E000128
:1036B800BF6FFF0E0001C06FF5C0C1F0F6C0C2F0C9
:1036C800F7C0C3F0F8C0C4F009EC00F012000334EE
:1036D80004340C6E0C50D8A409D0000E016E000EF4
:1036E800026E000E036E000E046E120006340734DC
:1036F8000B6E0B50D8A409D0000E016E000E026E9E
:10370800000E036E000E046E1200038EFF0E0116EB
:10371800FF0E0216FF0E0316000E0416068EFF0E8D
:103728000416FF0E0516FF0E0616000E0716000EED
:10373800076E000E086E000E096E000E0A6E7F0EF0
:103748000C5E0B50A00F0C5E200E0B6ED890073647
:10375800083609360A360450015C055002580650EE
:10376800035807500458D8A009D00450015E0550EA
:10377800025A0650035A0750045A0780D890013657
:103788000236033604360B2EE1D70CAE16D00C5099
:10379800800A9F0FD8B009D0000E016E000E026E8D
:1037A800000E036E000E046E1200D8900A32093221
:1037B800083207320C3EF9D715D01F0E0C640FD013
:1037C800000E016E000E026E000E036E000E046EF7
:1037D8001200D8900736083609360A360C060C50FF
:1037E800D8A4F7D707C001F008C002F009C003F059
:1037F8000AC004F01200000183510001D8B408D0B7
:10380800000180510001811100018211D8A411D05A
:10381800000E0001806F000E0001816F000E000194
:10382800826F12000001832B0001D890823381330C
:103838008033000E000180150001856F000E000125
:1038480081150001866FFE0E000182150001876F49
:10385800000185510001861100018711D8B411D0EB
:10386800E1D70001832B010E00018027000E000123
:103878008123000E000182230001D8908233813316
:103888008033000E000180150001856F000E0001D5
:1038980081150001866FFF0E000182150001876FF8
:1038A800000185510001861100018711D8B408D0A4
:1038B800D8D7000183070001D89080378137823735
:1038C800000181BF04D0020E00018361F2D700011C
:1038D80083B102D00001819F0001D8908333000199
:1038E800835100018213000184510001D8B402D031
:1038F8000001828F80C080F081C081F082C082F098
:10390800120017C01BF01C6A1D6A16341B3601E32F
:103918001C801B501E6E1E50D8A407D0000E156EBA
:10392800000E166E000E176E12001AC01BF01C6AED
:103938001D6A19341B3601E31C801B50236E23506B
:10394800D8A407D0000E156E000E166E000E176E66
:10395800120023507B0F1E2617C023F01A50231A7B
:10396800800E2316168E198EFF0E1816FF0E1916C6
:10397800000E1A16000E1F6E000E206E000E216E2D
:10398800070E226E15A006D018501F2619502022A7
:103998001A502122D890173216321532D89018367C
:1039A80019361A36222EEED7090E226E15A006D029
:1039B80018501F26195020221A502122D890173249
:1039C80016321532D890213220321F32222EEED7ED
:1039D8001FC001F020C002F021C003F01EC004F097
:1039E80023C005F055EC1FF001C015F002C016F019
:1039F80003C017F012002DC02FF0306A316A2C3442
:103A08002F3601E330802F50396E3950D8A409D0B1
:103A1800000E2B6E000E2C6E000E2D6E000E2E6EFC
:103A28001200170E2F6E2BC030F02CC031F02DC0B5
:103A380032F02F28336E04D0D890323231323032FF
:103A4800332EFAD73050346E2C8EFF0E2B16FF0E05
:103A58002C16000E2D162B50356E2C50366E2D5010
:103A6800376E386A8E0E395E39AE16D03950800AF4
:103A78008F0FD8B009D0000E2B6E000E2C6E000EE2
:103A88002D6E000E2E6E1200D89038323732363234
:103A98003532393EF9D715D0170E39640FD0000EDC
:103AA8002B6E000E2C6E000E2D6E000E2E6E120068
:103AB800D890353636363736383639063950D8A4A0
:103AC800F7D73450D8B408D0381E371E361E356C98
:103AD800000E36223722382235C02BF036C02CF0A3
:103AE80037C02DF038C02EF01200000182AF1DD073
:103AF80080C086F081C087F082C088F00001861FF0
:103B0800871F881F862B000E87238823000E00013D
:103B180086250001806F000E000187210001816F5A
:103B2800800E000188210001826F000185AF1DD041
:103B380083C086F084C087F085C088F00001861FA6
:103B4800871F881F862B000E87238823000E0001FD
:103B580086250001836F000E000187210001846F14
:103B6800800E000188210001856F000E0001801B76
:103B7800000E0001811B800E0001821B000E000157
:103B8800831B000E0001841B800E0001851B0001B1
:103B980083510001805D00018451000181590001B9
:103BA800855100018259D8B002D0D8901200D8802F
:103BB800120042EC25F0000E0001826FD00E816FDA
:103BC80039EC25F0000E0001826F000E816F39EC90
:103BD80025F03EEC25F042EC25F0000E0001826F46
:103BE800D10E816F39EC25F0000E0001876F050EAC
:103BF8000001876501D012D000018751010DF350F3
:103C080000018325D96EF45000018421DA6E010E7B
:103C180051EC24F0DF6E0001872BE9D7000120EE7C
:103C280006F08351D9268451DA22000E51EC24F093
:103C3800DF6E3EEC25F0010E25EC25F0270E000185
:103C4800856FF50EE82EFED7852FFCD7800E25EC64
:103C580025F0C00E25EC25F0040E0001866F0C0E31
:103C68000001856F330EE82EFED7852FFCD7862FEF
:103C7800FAD700D01200000E00018B6F000189AF47
:103C880008D00001886D891FD8B0892B010E00016A
:103C98008B6F000187AF08D00001866D871FD8B0F1
:103CA800872B010E00018B1B000E00018D6F000E8B
:103CB8008C6F0001885100018911D8B42CD0010EF5
:103CC80000018A6F06D00001D89088378937000133
:103CD8008A2B000189AFF7D70001D8908C378D3730
:103CE800000188510001865D000189510001875952
:103CF800D8A00AD0000188510001865F00018951CF
:103D08000001875B00018C810001D89089338833DA
:103D180000018A2FE1D700018B510001D8B405D0EA
:103D280000018C6D8D1FD8B08D2B8CC086F08DC096
:103D380087F01200000E0001886F000E896F000ED8
:103D48008A6F000E8B6F00018451000185110001FC
:103D5800861100018711D8B442D0010E00018C6F82
:103D680008D00001D8908437853786378737000117
:103D78008C2B000187AFF5D70001D8908837893799
:103D88008A378B37000184510001805D000185511D
:103D980000018159000186510001825900018751B3
:103DA80000018359D8A012D0000184510001805F1E
:103DB800000185510001815B000186510001825B91
:103DC800000187510001835B000188810001D890C0
:103DD800873386338533843300018C2FCDD788C051
:103DE80080F089C081F08AC082F08BC083F0120015
:103DF8000600FACF66F0FBCF67F0E9CF68F0EACFAC
:103E080069F0E1CF6AF0E2CF6BF0D9CF6CF0DACF8E
:103E18006DF0F3CF6EF0F4CF6FF0F6CF70F0F7CF10
:103E280071F0F8CF72F0F5CF73F0F0A01CD0010E4E
:103E38002DEC25F0270E656EF50EE82EFED7652EC3
:103E4800FCD700F081380F0B0F0B746E7450010D06
:103E5800230EF324F66EFF0EF420F76E0800F550DB
:103E6800B9EC14F0F09073C0F5FF72C0F8FF71C0A0
:103E7800F7FF70C0F6FF6FC0F4FF6EC0F3FF6DC0B0
:103E8800DAFF6CC0D9FF6BC0E2FF6AC0E1FF69C00E
:103E9800EAFF68C0E9FF67C0FBFF66C0FAFF7B92D4
:103EA80011000450D8B405D0015002100310D8A452
:103EB8000CD0000E016E000E026E000E036E120092
:103EC800042AD890033202320132000E0114066E21
:103ED800000E0214076EFE0E0314086E065007103B
:103EE8000810D8B40CD0ECD7042A010E0126000E15
:103EF8000222000E0322D890033202320132000E51
:103F08000114066E000E0214076EFF0E0314086EED
:103F1800065007100810D8B406D0E6D70406D89083
:103F280001360236033602BE03D0020E0460F6D70D
:103F380004A0029ED8900432045003120550D8A45D
:103F4800038E01C001F002C002F003C003F01200AA
:103F580080C0D9FF81C0DAFFDF500001826F000105
:103F6800823B0F0E82170F0E00018217000182514B
:103F78000A0D80C0D9FF81C0DAFFDF500F0B0001A6
:103F8800836F846BF35000018327F450000184236E
:103F9800000120EE01F08051D9268151DA22DF504C
:103FA8000001856F0F0E00018517000185513C0D3A
:103FB800F35000018327F45000018423000120EE10
:103FC80001F08051D9268151DA22DF500001866F35
:103FD8000001863B0F0E86170F0E000186170001A1
:103FE80086510A0DF350000183250001806FF450BB
:103FF800000184210001816F1200B2C0B6F0B3C085
:10400800B7F00001B63BB73BF00EB717B6510F0B30
:10401800B713F00EB6170001B63BB73BF00EB71753
:10402800B6510F0BB713F00EB6170001B4510001CB
:10403800B6250001B86F0001B5510001B721000194
:10404800B96F000E0001976FA00E0001986F400E27
:104058000001996FB8C088F0B9C089F0C2EC23F0AC
:1040680088C094F089C095F08AC096F043EC18F0A7
:1040780094C0A3F095C0A4F096C0A5F0C00E0001AE
:10408800A66F7F0E0001A76F440E0001A86FF2EC27
:1040980018F0A3C0B2F0A4C0B3F0A5C0B4F01200E9
:1040A800000E0001856F000181AF08D00001806D0E
:1040B800811FD8B0812B010E0001856F000183AFED
:1040C80005D00001826D831FD8B0832B0001825177
:1040D80000018311D8B426D0010E0001846F06D0E8
:1040E8000001D890823783370001842B000183AF09
:1040F800F7D7000182510001805D00018351000162
:104108008159D8A008D0000182510001805F0001C8
:1041180083510001815B0001D89083338233000111
:10412800842FE7D7000185510001D8B405D00001DC
:10413800806D811FD8B0812B80C080F081C081F054
:104148001200000191510001921100019311000128
:104158009411D8B43AD0010E0001956F08D000012F
:10416800D89091379237933794370001952B0001F7
:1041780094AFF5D70001915100018D5D0001925176
:1041880000018E590001935100018F59000194518B
:1041980000019059D8A010D00001915100018D5F05
:1041A8000001925100018E5B0001935100018F5B69
:1041B800000194510001905B0001D890943393332F
:1041C800923391330001952FD5D78DC08DF08EC0D5
:1041D8008EF08FC08FF090C090F0120003AE16D012
:1041E80001C007F002C008F003C009F0071E081E4E
:1041F800091E072A000E08220922000E0724016E54
:10420800000E0820026E800E0920036E06AE16D03E
:1042180004C007F005C008F006C009F0071E081E14
:10422800091E072A000E08220922000E0724046E20
:10423800000E0820056E800E0920066E000E011A79
:10424800000E021A800E031A000E041A000E051A38
:10425800800E061A0450015C055002580650035897
:10426800D8B002D0D8901200D8801200000E0C6E80
:104278000AAE06D0096C0A1ED8B00A2A010E0C6EC6
:1042880008AE06D0076C081ED8B0082A010E0C1A12
:10429800000E0E6E000E0D6E09500A10D8B41CD018
:1042A800010E0B6E04D0D89009360A360B2A0AAED6
:1042B800FAD7D8900D360E360950075C0A500858C0
:1042C800D8A005D00950075E0A50085A0D80D8902A
:1042D8000A3209320B2EEDD70C50D8B404D00D6C2D
:1042E8000E1ED8B00E2A0DC007F00EC008F012003E
:1042F800000E096E000E0A6E000E0B6E000E0C6E9C
:104308000550061007100810D8B42AD0010E0D6EFB
:1043180006D0D89005360636073608360D2A08AE78
:10432800F8D7D89009360A360B360C360550015C9A
:10433800065002580750035808500458D8A009D00E
:104348000550015E0650025A0750035A0850045A95
:104358000980D89008320732063205320D2EE1D78F
:1043680009C001F00AC002F00BC003F00CC004F051
:1043780012008E0E0001906F08D00001D8908B3388
:104388008A33893388330001902B000E0001881589
:1043980000018C6F000E0001891500018D6F000E61
:1043A80000018A1500018E6FFF0E00018B150001B8
:1043B8008F6F00018C5100018D1100018E110001D9
:1043C8008F11D8A4DAD788C080F089C081F08AC05C
:1043D80082F090C083F0000E0001846FFFEC1BF0A8
:1043E80080C088F081C089F082C08AF01200000E77
:1043F800066E02AE06D0016C021ED8B0022A010E6B
:10440800066E04AE04D0036C041ED8B0042A035010
:104418000410D8B418D0010E056E04D0D890033615
:104428000436052A04AEFAD70350015C045002583A
:10443800D8A004D00350015E0450025AD890043228
:104448000332052EF1D70650D8B404D0016C021EF1
:10445800D8B0022A01C001F002C002F01200000127
:10446800816F00018151F00B0001806F8C500F0BA0
:104478008C6E000180518C108C6E8C96100EE82E7C
:10448800FED700D08C86100EE82EFED700D0000193
:104498008139F00B0001816F00018151F00B00019F
:1044A800806F8C500F0B8C6E000180518C108C6EBD
:1044B8008C96100EE82EFED700D08C86100EE82EB3
:1044C800FED700D012001250131014101510D8B4D3
:1044D80024D0010E166E06D0D89012361336143634
:1044E8001536162A15AEF8D712500E5C13500F5811
:1044F8001450105815501158D8A008D012500E5EFC
:1045080013500F5A1450105A1550115AD89015328A
:10451800143213321232162EE7D70EC00EF00FC027
:104528000FF010C010F011C011F01200000EC76E8D
:10453800280EC66E000EC56E000E0001806F120EAA
:10454800816F7A0E826F000E836F8DC091F08EC0DE
:1045580092F08FC093F090C094F0020ED8900001B2
:104568009137923793379437E82EF8D791C084F073
:1045780092C085F093C086F094C087F09EEC1EF040
:1045880000018005C86E94869488120042EC25F0DC
:10459800000E0001826FD00E816F39EC25F0000EFD
:1045A8000001826F000E816F39EC25F0000E0001CA
:1045B800836F060E0001836501D013D0000183517B
:1045C800010D340EF324F66EFF0EF420F76E08008A
:1045D800F5500001816F826B39EC25F00001832BC7
:1045E800E8D73EEC25F012008E0E116E06D0D8905A
:1045F8000C320B320A320932112A000E09140D6EE0
:10460800000E0A140E6E000E0B140F6EFF0E0C1423
:10461800106E0D500E100F101010D8A4E8D709C056
:1046280001F00AC002F00BC003F011C004F0000E44
:10463800056E55EC1FF001C009F002C00AF003C076
:104648000BF01200026E0250F00B016E8C500F0B33
:104658008C6E01508C108C6E8C96100EE82EFED746
:1046680000D08C86100EE82EFED700D00238F00B52
:10467800026E0250F00B016E8C500F0B8C6E0150C5
:104688008C108C6E8C96100EE82EFED700D08C867F
:10469800100EE82EFED700D01200000E0001866F23
:1046A800000E856F17D08B808B82C80E00D0E82E45
:1046B800FDD78B90C80E00D0E82EFDD71A0E00014A
:1046C800846FF80EE82EFED7842FFCD700F0000187
:1046D800854B862B000180510001855D00018151C9
:1046E80000018659D8B01200DED70001BC51000184
:1046F800BD110001BE11D8B409D0000E0001BC1BC9
:10470800000E0001BD1B800E0001BE1BB9C0ADF03C
:10471800BAC0AEF0BBC0AFF0BCC0B0F0BDC0B1F025
:10472800BEC0B2F062EC12F0ADC0B9F0AEC0BAF0E3
:10473800AFC0BBF01200270E0001836FF50EE82E04
:10474800FED7832FFCD7330E25EC25F0320E25EC4F
:1047580025F0280E25EC25F00F0E25EC25F0060E89
:1047680025EC25F0010E25EC25F0270E0001836FBE
:10477800F50EE82EFED7832FFCD71200000E00019D
:104788008B6F000189AF08D00001886D891FD8B0F0
:10479800892B010E00018B6F88C080F089C081F0E1
:1047A8000001826B8E0E0001836F8BC084F0FFECDA
:1047B8001BF080C088F081C089F082C08AF01200A6
:1047C8003D503E103F10D8B406D0000E3D1A000EE2
:1047D8003E1A800E3F1A3AC02EF03BC02FF03CC064
:1047E80030F03DC031F03EC032F03FC033F0DAEC7B
:1047F80015F02EC03AF02FC03BF030C03CF012004C
:1048080000018E5100019003F3CF92F0F4CF93F0A2
:1048180000018E5100019103F3500001932700011C
:104828008F5100019003F3500001932792C08EF03E
:1048380093C08FF01200000E0101016F000E006F8F
:10484800000E0101036F000E026F000E0101076FD9
:10485800000E066F000E0101056F000E046F000EBA
:104868000101096F000E086F12000001805100015C
:10487800811100018211D8B409D0000E0001801BFB
:10488800000E0001811B800E0001821B80C080F099
:1048980081C081F082C082F012000001816F13ECA8
:1048A80025F0C58613EC25F0C9CF82F013EC25F06E
:1048B800000181510001D8A402D0C58A01D0C59A4F
:1048C800C5880001825112000001816F00018145F5
:1048D800E846FC0BC26EC280C28209D00D0E0001F0
:1048E800806FFB0EE82EFED7802FFCD700D0C2A227
:1048F8001200F4D70001826F000E0001816F3A0E9A
:104908000001826107D02F0E0001826503D0010EDD
:104918000001816F81C080F0000180311200000128
:104928008151AA6E80C0A9FF82C0A8FFA69EA69C3E
:10493800A684550EA76EAA0EA76EA682A1A8FED7BA
:10494800A198A694120001EE00F0140EEE6AE80693
:10495800FDE17A6A796A786A776A766A756A7B901D
:104968007B92000EF86E000119EF0AF00F50110249
:10497800F3CF13F0F4CF14F00F501202F3501426B3
:1049880010501102F350142613C00FF014C010F089
:104998001200015002100310D8B406D0000E011AFC
:1049A800000E021A800E031A01C001F002C002F0C4
:1049B80003C003F01200036E000E026E3A0E03608D
:1049C80005D02F0E036402D0010E026E02C001F062
:1049D800013012000001815105E11F0E0001805DC8
:1049E800D8A01200000E01010D6F010E0C6F12000D
:1049F80000018151AA6E80C0A9FFA69EA69CA68030
:104A0800A6B0FED7A8501200080E000180250001AC
:104A1800806F000E000181210001816F1200C7B470
:104A2800FED7C5CF80F01F0E00018017D8B4120042
:104A3800F6D70001826F8C840001825133EC22F09A
:104A480012000001826F8C940001825133EC22F035
:104A58001200036E8C94035026EC23F01200036EB0
:104A68008C84035026EC23F0120013EC25F081C04F
:104A7800C9FF120013EC25F0C584120013EC25F0D1
:044A8800C5801200D3
:10FE8C0000010000000A00000064000000E803000C
:10FE9C000010270000A086010040420F00809698B9
:10FEAC000000E1F50500CA9A3B00803FCDCC3DD760
:10FEBC00233C12833AB7D138C62737388635C0D69B
:10FECC0033CC2B32708930E7DB2EE53C1E42A20D81
:10FEDC0000803F00204100C842007A44401C46503C
:10FEEC00C34724744997184BBCBE4C6B6E4E03151C
:10FEFC005079AD60F3497101000000100000000062
:10FF0C0001000000100000000001000000100000C3
:10FF1C0000000100000010313233413435364237D5
:10FF2C003839432A302344000000000206021730FF
:10FF3C003132333435363738396162636465660083
:10FF4C00443A25642074696D653A256420383E3E38
:10FF5C0000656C61707365642074696D653A202569
:10FF6C00640041413A256420433A25642039563ACD
:10FF7C0025640020253364202564202578202578ED
:10FF8C00202566003C3C2037204441544120392038
:10FF9C003E3E007072657373202A20746F20727558
:10FFAC006E00414120736F727465643A20256400C1
:10FFBC00395620736F727465643A202564004320AF
:10FFCC00736F727465643A202564006F7020233A55
:10FFDC0020312032203300447261696E65643A200E
:10FFEC00256400746F74616C3A202564006572722C
:04FFFC006F72000020
:020000040020DA
:08000000FFFFFFFFFFFFFFFF00
:020000040030CA
:0E000000FF021F1EFF8381FF0FC00FE00F40A5
:00000001FF
